:100000000C94AC010C94E4010C94E4010C94E40114
:100010000C94E4010C94E4010C94E4010C94E401CC
:100020000C94E4010C94E4010C944E1C0C94221DDD
:100030000C941F170C94E4010C94E4010C94E4015B
:100040000C94E4010C94E4010C94E4010C94E4019C
:100050000C94E4010C94A6170C94E4010C94E401B4
:100060000C94E4010C94E4010C94E4010C94E4017C
:100070000C94E4010C94E4010C94E4010C94E4016C
:100080000C94E4010C94E4010C94E4010C94E4015C
:100090000C94E4010C94E4010C94E4010C94E4014C
:1000A0000C94E4010C94E4010C94E40129001E007A
:1000B0001F00200021002200230024002B00140038
:1000C0001A000800150017001C0018003900040071
:1000D0001600070009000A000B000D00E1001D00DA
:1000E0001B0006001900050011001000E000E300ED
:1000F000E2002C00E60001510000000000004F006B
:1001000051005000E40000000000000000004C001E
:100110005200E500380037003600000000004800BB
:100120002800340033000F000E00000000004E00D5
:10013000310030002F00130012000C0000004B00B3
:100140002A002E002D0027002600250035003A0049
:100150003B003C003D003E003F004000010001002C
:10016000010001000100010049000100010001003F
:100170000100010001000100010001000100010077
:1001800001000100010001000100A80001000100C0
:10019000010001000100010000000000000001005A
:1001A000010001000100000000000000000001004B
:1001B000010001000100A900AA00000000000100E8
:1001C00001000100010001000100000000004D00DD
:1001D00048004700460001000100010000004A00FD
:1001E0004C004500440043004200410012037A00E5
:1001F0007A0065006C00690061003600350000007F
:100200000E037A007A0065006E006500670000004A
:100210000403090409023B00020100A0FA090400DA
:100220000001030101000921110100012240000722
:100230000581030800010904010001030000000911
:10024000211101000122B6000705820320000112DE
:1002500001000200000008EDFE00000001010200A4
:100260000105010902A10185020901A10005091981
:10027000012908150025019508750181020501096C
:100280003009311581257F950275088106093815D9
:1002900081257F950175088106050C0A38021581B4
:1002A000257F950175088106C0C005010980A1015F
:1002B000850319012AB700150126B70095017510AD
:1002C0008100C0050C0901A101850419012AA002C1
:1002D000150126A002950175108100C005010906CF
:1002E000A1018506050719E029E7150025019508F4
:1002F000750181020507190029EF1500250195F008
:1003000075018102050819012905950575019102FC
:10031000950175039101C005010906A101050719A1
:10032000E029E71500250195087501810295017501
:100330000881010507190029FF150026FF00950611
:1003400075088100050819012905950575019102B7
:10035000950175039101C00011241FBECFEFDAE0B3
:10036000DEBFCDBF04B603FE18C08091C1029091DC
:10037000C202A091C302B091C4028730904BA74043
:10038000B04B59F41092C1021092C2021092C302F3
:100390001092C402E0E0F8E3099511E0A0E0B1E0BA
:1003A000EAE2FFE302C005900D92AC38B107D9F73D
:1003B00022E0ACE8B1E001C01D92A13CB207E1F738
:1003C0000E94F5100C947D1F0C94000081E00895AC
:1003D00081E008950E94E801089508950E94ED01CA
:1003E0000895A5E0B0E0E7EFF1E00C94F21E498338
:1003F0005A8330918F0189819A81311119C0662306
:1004000099F0222389F00E940008182F682F898113
:100410009A810E94DD0769817A81812F0E94770E7F
:100420002596E3E00C940E1F0E94EE07182FF3CFE1
:100430000E94000869817A81F1CFFC01262F40815A
:1004400051816281738184810E94F101089581E06C
:100450000895CF93DF93EC0160E00E941D02BE017E
:100460000E94EE01DF91CF9108950E94B70F089589
:100470000E94BB0F089508950E942C060E943B0223
:100480002FEF84E39CE0215080409040E1F700C0D2
:10049000000008950E943C020E94CA1708950E941D
:1004A0003C020E94EE1708950F931F93CF93DF93A2
:1004B0008C0161E00E941D02EC01B8010E94EA017A
:1004C000811106C080E0DF91CF911F910F910895B7
:1004D000B801CE010E9451158823A1F3B801CE01C5
:1004E0000E948613882371F3B801CE010E94C314C1
:1004F000882341F3F8018281882361F0CB35FDE543
:10050000DF0701F158F4C115ECE5DE0791F0CF3DAE
:10051000DC4591F0C8010E94E601D5CFCD358DE5CF
:10052000D80769F090F0C83ADD45A1F70E944F0264
:10053000C9CF0E944A02C6CF0E94C60CF7CF0E94C4
:10054000000CE8CF0E940A0CE5CF0E940E0CE2CF0F
:100550000E94FC160E94C50208950E94C9020E94D2
:100560000117089508950E94B202089581E0089548
:100570000E94B60208950895CF93C82F0E94B30237
:100580008C2F0E94B802CF91089580E00E94BC0297
:1005900008950E94AD150E94BC0208950E94AD15F9
:1005A00090918E01981721F080938E010E94BC02D9
:1005B0000895ABE0B0E0EFEDF2E00C94F31E4F8352
:1005C000588769877A878B8761110E944B0B1E823F
:1005D0001D8285E0FE013796DE01119601900D9295
:1005E0008A95E1F78C819D81892B61F449815A813B
:1005F0006B817C818D819E810E94740A2B96E2E042
:100600000C940F1F89819A8189238F3F79F3CE0142
:1006100001960E9427028111E9CFF0CFFC01808171
:1006200091810E943A080895CF93C82F8823B9F08A
:100630008CEF8C0F813AA8F46C2F8091000190917F
:1006400001010E942216882329F08C2F0E940B0B97
:100650000E946C0B8C2F0E94030B0E946C0BCF919D
:10066000089580E28C0F883048F4C77081E001C0A3
:10067000880FCA95EAF70E942E0BEFCFEBE5EC0F3F
:10068000E33040F4F0E0EB5BFE4F808190E00E94AD
:10069000E215E5CFE8E5EC0FE73150F4F0E0EE0FBE
:1006A000FF1FE95EFE4F808191810E94F815D7CF30
:1006B000CD3EA8F28C2F0E9479110E944C12CFCF10
:1006C000882379F19CEF980F913A28F40E940B0B44
:1006D0000E946C0B089590E2980F983050F4877048
:1006E00091E001C0990F8A95EAF7892F0E94340B97
:1006F000EFCF9BE5980F933028F490E080E00E94C4
:10070000E215089598E5980F973128F490E080E07D
:100710000E94F81508958D3E20F00E94D3110E948A
:100720004C1208951F93CF93DF93182FEB010E9473
:100730001403209739F4812F0E946003DF91CF9139
:100740001F9108958FE99FE00197F1F700C0000025
:100750002197EFCF70E060E0893311F460E570E03D
:100760000E9492030895882321F00E942E0B0E947C
:100770006C0B0895882321F00E94340B0E946C0BAF
:100780000895B0E0A0E0E7ECF3E00C94EC1E6C01FF
:10079000D62FC72FFC011281F580F2949FE0F92239
:1007A0000E94240BE82E8823B9F0E12E1123A1F03A
:1007B0008C2F807F803421F080E28D0F8830D0F044
:1007C00080919B0282FF16C082E00E94CF0B0E94A4
:1007D000240B91E0E82EE926BC2EB2948FE0B822DB
:1007E000FBE0FB1508F468C0EB2DF0E0E158F04E9B
:1007F0000C94DD1EE12CF0CF0C2F0F70C07F11F098
:100800000295007F112399F0002359F080E28D0FAB
:10081000883010F0D11107C0802F0E942E0B0E944B
:100820006C0B8D2F41C0802F0E943E0BF8CF8D2F77
:100830000E946003002309F43FC080E28D0F8830DE
:1008400010F0D11104C0802F0E94340B03C0802F00
:100850000E94440B0E946C0B2FC00C2F0F70C07FA6
:10086000C03211F00295007FDD2381F0D13009F410
:1008700063C0112309F46DC0FF2009F463C0F601C1
:10088000858180FFCECF8F7085835CC080919B0275
:1008900082FD33C0112359F0002329F0802F0E94DC
:1008A0002E0B0E946C0B80E00E94140305C080E0B8
:1008B0000E9460030111C7CFEB2DE850FF0B349766
:1008C00020F40E94AD150E94BC02EE2089F00E9427
:1008D000200B80FD0DC0F60112820E941A0B0E94AF
:1008E000E506C6010E94EC050E941A0B0E9407074C
:1008F000CDB7DEB7E9E00C94081F112389F0F110A1
:1009000006C00E944E0B802B0E94B303D5CF21E07E
:10091000F212F7CF0E944E0B802B0E94550BCCCFCA
:10092000F11006C00E94620B802F0E94BA03C4CF50
:1009300031E0F31609F2F6CF112331F085E08F157F
:1009400008F4BACF802FE0CF94E09F1508F4B4CF1D
:10095000EBCFFF2049F3D93349F4FFEF27EE33E023
:10096000F15020403040E1F700C000008D2F0E9480
:100970006003A2CF8C2F86958695837069F08130B5
:1009800009F09ACF8D2F9C2F9370111102C090E027
:1009900080E00E94F81590CF8D2F9C2F937011113D
:1009A00002C090E080E00E94E21586CF8D2F1123D7
:1009B00029F00E9479110E944C127ECF0E94D3111F
:1009C000FACF8C2F837009F041C0111175CF4D2FD4
:1009D000429546954770440F440F0D2F0F7010E05D
:1009E00030E020E0042E04C0000F111F221F331F2F
:1009F0000A94D2F760E070E0CB01D4FF0FC06FE043
:100A000070E080E090E004C0660F771F881F991F98
:100A10004A95D2F76095709580959095C695C69544
:100A2000C370602B712B822B932BC23049F058F48A
:100A3000C13019F00E9490063FCF0E947D063CCF46
:100A40000E94A30639CF0E947A0636CF86951123DD
:100A500011F08C2F8170882309F42ECF4D2F4295F1
:100A600046954770440F440F0D2F0F7010E030E093
:100A700020E0042E04C0000F111F221F331F0A9410
:100A8000D2F760E070E0CB01D4FF0FC06FE070E000
:100A900080E090E004C0660F771F881F991F4A9579
:100AA000D2F76095709580959095C695C695C37060
:100AB000602B712B822B932BC23049F058F4C1303C
:100AC00019F00E946007F8CE0E944D07F5CE0E94F3
:100AD0007307F2CE0E94BC06EFCECF70112329F02F
:100AE0008C2F0E94E5068D2F0FCF8D2F0E94BA0309
:100AF0008C2F0E940707E0CED23F51F160F4D03F27
:100B0000B9F0D13F81F0112309F449C0F11089CE29
:100B10008C2F8F7121C0D33F11F1D43FA1F7809169
:100B20009B0282FD26C08C2F8F71112311F314C0FC
:100B3000112349F084E08F1508F4BECE8C2F8F71FD
:100B40000E942B07B9CE95E09F1508F4B5CEF6CFDD
:100B50008C2F8F711111CDCF0E94E506ADCE1123E0
:100B600029F08C2F8F710E94CF06A6CE0E94C90655
:100B7000A3CE112349F0CF718C2F0E94E50663E0CC
:100B80008C2F0E94B10B98CE81E00E94CF0BE1E048
:100B9000EF1508F091CE82E00E94CF0B8DCEF110C0
:100BA000DACE8C2F8F71A5CF0F931F93CF93DF9346
:100BB000EC01688179818A810E9445088C010E943C
:100BC00086070E947906B801CE010E94C103DF9119
:100BD000CF911F910F910895CF93DF93EC018B81FB
:100BE0009C81892B29F08881998189238F3F51F439
:100BF000DF91CF910895CE010E94D405CE010E94CD
:100C00002902F6CFCE010E9454028111F4CF0E9436
:100C1000240B882369F38A81882351F380919B02F6
:100C200082FFE6CF82E00E94CF0BE2CF90E080E02F
:100C30000E94E21590E080E00E94F8150E944B0BA4
:100C40000E946C0B0E9468120E944C1208950E9430
:100C5000130B0E94160608950E943B0B0E94270664
:100C6000089592959F70963091F058F4925F9F701E
:100C7000923058F4803F19F030F4883E30F481E02F
:100C800008959A5FF4CF843FD1F380E00895883EC1
:100C9000B0F3813FD1F7F3CFFC01808191810E94B5
:100CA0003A080E9431060895A5E0B0E0EAE5F6E0D2
:100CB0000C94F31E2596E2E00C940F1FA6E0B0E022
:100CC000E4E6F6E00C94F31E2696E2E00C940F1F87
:100CD00008950E94680608950E9469066093C601FF
:100CE0007093C7018093C8019093C9010E941606B2
:100CF000089508950E946C0608950F931F93009124
:100D0000C6011091C7012091C8013091C901602B23
:100D1000712B822B932B0E946C061F910F910895CB
:100D20000F931F930091C6011091C7012091C80134
:100D30003091C90160237123822393230E946C06A2
:100D40001F910F9108950F931F930091C601109169
:100D5000C7012091C8013091C901602771278227FE
:100D600093270E946C061F910F9108950E946806B8
:100D700008950E94B60608950E94B9066093C201C4
:100D80007093C3018093C4019093C5010E9416061D
:100D9000089560E070E0CB010E94BC0608950F93B7
:100DA0001F9341E050E060E070E08A019B0104C0C5
:100DB000000F111F221F331F8A95D2F7C901B801F6
:100DC0000E94BC061F910F9108950F931F9341E05D
:100DD00050E060E070E004C0440F551F661F771FAD
:100DE0008A95D2F78091C2019091C301A091C4016C
:100DF000B091C5018A019B01082B192B2A2B3B2B93
:100E0000C901B8010E94BC061F910F9108950F936C
:100E10001F9341E050E060E070E004C0440F551FB4
:100E2000661F771F8A95D2F7CB01BA01609570953E
:100E3000809590950091C2011091C3012091C40149
:100E40003091C50160237123822393230E94BC0645
:100E50001F910F9108950F931F9341E050E060E0C0
:100E600070E004C0440F551F661F771F8A95D2F7A4
:100E70008091C2019091C301A091C401B091C501BC
:100E80008A019B01082719272A273B27C901B80196
:100E90000E94BC061F910F9108950F931F9300911C
:100EA000C2011091C3012091C4013091C501602B92
:100EB000712B822B932B0E94BC061F910F910895DA
:100EC0000F931F930091C2011091C3012091C4019F
:100ED0003091C50160237123822393230E94BC06B5
:100EE0001F910F9108950F931F930091C2011091CC
:100EF000C3012091C4013091C50160277127822769
:100F000093270E94BC061F910F9108950895262FE4
:100F1000277091E001C0990F2A95EAF723E07695B2
:100F200067952A95E1F725E0269FF001279FF00DB0
:100F30001124E40FF51F50E040E0682F70E081912C
:100F4000DF0111979B01042E02C0369527950A9464
:100F5000E2F7217021952827292328272C934F5F1A
:100F60005F4F4530510559F70895A82FA77023E02A
:100F7000969587952A95E1F725E0289FF001299F0E
:100F8000F00D1124E60FF71F50E040E080E02191C2
:100F900030E00A2E02C0369527950A94E2F72170B8
:100FA0003327042E01C0220F0A94EAF7822B4F5FE9
:100FB0005F4F4530510559F70895262F9A3068F450
:100FC000883058F438E0939FB0011124680F711DE8
:100FD00040E951E0822F0E94870708959A3070F40B
:100FE000883060F448E0949F9001112460E971E03A
:100FF000820F932F911D0E94B507089580E00895F8
:10100000B0E0A0E0E6E0F8E00C94EC1E8C01C090AB
:10101000C201D090C301E090C401F090C50180915D
:10102000C6019091C701A091C801B091C901C82A19
:10103000D92AEA2AFB2ACFE1D0E0BC2ED701C6018B
:101040000C2E04C0B695A795979587950A94D2F76C
:1010500080FD09C0219788F7B12C8B2DCDB7DEB765
:10106000E9E00C94081FB8018C2F0E94930E0197A1
:1010700089F3F3CFCF93DF93EC010E940008BE0108
:101080000E94930EDF91CF9108951F93CF93DF932A
:10109000EB0190918F01992339F0CB010E943A081E
:1010A000DF91CF911F910895882369F0CB010E94B1
:1010B0000008182F682FCE010E94DD07BE01812F86
:1010C0000E94930EEDCFCB010E94EE07182FF6CFB2
:1010D0001F93CF93DF93C091CA0116E08091CB019B
:1010E0008C1304C0DF91CF911F910895D0E01C9F15
:1010F000F0011D9FF00D1124E453FE4F40815181FA
:1011000062817381848195810E945E062196C770F9
:10111000E5CF4091FC015091FD016091FE0170917D
:10112000FF0180910002909101020E945E060895E5
:101130001F93CF93DF9380910102807F09F049C014
:101140008091FE01882309F444C08091CA01C091B6
:10115000CB016091FC017091FD01A091FF01B09164
:101160000002D62FD72316E0C81799F190E0109708
:1011700011F0DF3F19F401968770F6CF189F9001A8
:10118000199F300D1124F901E453FE4F418147139B
:10119000F2CF40814613EFCF42814111ECCF438122
:1011A00054814A1B5B0B483C510528F78091010292
:1011B0008F70806180930102F901EF52FE4F8081B0
:1011C0008F70806180838CEF91E00E94EC050E941B
:1011D0006808DF91CF911F910895A1E1B0E0E3EF9E
:1011E000F8E00C94EB1E8C0185E0F801DE011D9601
:1011F00001900D928A95E1F7F801E2808CEFC82EFC
:1012000081E0D82E6091FF01709100026115710597
:1012100009F44EC19091FC012091FD01892F822398
:101220008F3F09F445C140815181A380B480F09083
:10123000FE01F501E61BF70BFF2009F4EAC08091DF
:101240000102382F307FE83CF10508F0A3C03111CE
:101250006DC0FE2C251316C0941314C0E11012C0EB
:101260008F708061809301020E948908C6010E94EC
:10127000EC0580910102F80185838F2D6196EAE0EB
:101280000C94071FA114B10429F0842F85238F3FEC
:1012900009F027C180E0F82FF170DF2E80FF3CC0FD
:1012A0008091CA012091CB0136E0821315C04D8791
:1012B0005E878D859E850E943A08292F22952F7082
:1012C0002230F0F0243018F59F70F1F0F80195818C
:1012D000907FD1F4D12C1EC090E0389FF001399F4F
:1012E000F00D1124E453FE4F6181651306C0608147
:1012F000641303C06281E6120FC001968770D5CFD8
:101300009F7011F0882331F3805E883018F3C80194
:101310000E94EC05FD2CB1CFEE2009F4AECF8091F8
:101320000102816080930102F12CA7CF251306C032
:10133000941304C0F801EE2009F487C0C8010E948C
:101340004C06882319F1EE2009F1809101028032C8
:1013500070F02091FC013091FD0138872F831986B0
:10136000BB86AA868C87CE0107960E94EC0586E094
:10137000F801ACEFB1E001900D928A95E1F70E947F
:1013800098080E948908FF24F39477CFC8010E942F
:10139000EC05F9CF311113C07A2DB98AA88A6E2DC8
:1013A00089890E9454068CEF91E00E94EC0586E04A
:1013B000F60111928A95E9F70E948908B5CF2513A5
:1013C0000FC094130DC0E1100BC0F8018583C80154
:1013D0000E94EC0586E0F60111928A95E9F74DCF5F
:1013E000C8010E944C06882389F2EE2079F2809190
:1013F0000102803208F4BBCF2091FC013091FD0145
:101400003A8329831B82BD82AC828E83CE010196F2
:10141000ACCFE83CF10508F03EC0FE2CEE2009F40C
:10142000B5CF25132AC0941328C08091010280FDF6
:101430001BC0982F907FC1F0F8018583903F31F059
:10144000982F907F905F8F70892B8583C8010E94B1
:10145000EC0586E0F801ACEFB1E001900D928A95C1
:10146000E1F70E94890809CF86E0F801ACEFB1E00E
:1014700001900D928A95E1F700CFC8010E944C06B9
:10148000811175CF80910102816080930102C801B2
:101490000E94EC05F2CE7A2DB98AA88A6E2D898930
:1014A0000E94540686E0F60111928A95E9F7D9CF99
:1014B000EE2009F46BCFC8010E944C06F82E882359
:1014C00009F464CF86E0F801ACEFB1E001900D9231
:1014D0008A95E1F78CEF91E00E940E030E94980834
:1014E000C0CF81E08E25D7CEACE0B0E0EAE7FAE0ED
:1014F0000C94F21E4F83588769877A878B879C8765
:10150000CE0107960E94ED08882369F08A859B85A5
:10151000892B39F04F815885842F85238F3F09F01F
:101520006BC016E05FC086E0FE013796DE011196C3
:1015300001900D928A95E1F78A859B85892B89F325
:101540008F81988589238F3F61F32091CB0130E013
:10155000C9010196877099274091CA014817190659
:1015600071F40E942C061092CB011092CA0186E001
:10157000ECEFF1E0DF011D928A95E9F7D2CF96E01A
:10158000929FD001939FB00D1124A453BE4FFE0132
:10159000319601900D929A95E1F78093CB010E94CC
:1015A0006808BFCF819FC001112484539E4F0E94C1
:1015B000ED088823E9F0E091CA011E9FF001112493
:1015C000E453FE4F40815181628173818481958112
:1015D0000E945E068091CA0190E00196877099276B
:1015E0008093CA018091CA019091CB018913DACF0F
:1015F0002C96E3E00C940E1F69857A858B859C857B
:101600000E945E068ECF682F8091000190910101AB
:101610000E94A2160895682F809100019091010107
:101620000E94B016089580910001909101010E94DE
:10163000BE16089580912202859585958595089519
:10164000809122028770089590912202977081E024
:1016500009F480E008958091450208959091450233
:10166000892B809345020895809590914502982397
:101670009093450208951092450208959091440276
:10168000892B809344020895809590914402982379
:101690009093440208951092440208958091230289
:1016A000089508950E94510B089590919B0292FF16
:1016B00008C090912302981721F0809323020E9482
:1016C000520B089580912302882329F0109223025F
:1016D00080E00E94520B0895CF93DF93E0910001C8
:1016E000F0910101809145028083E0910001F09129
:1016F0000101808190914402892B80839091230283
:10170000992381F0E0910001F09101018081892B02
:10171000808380910001909101010E940E16811139
:101720000E94620BC0910001D091010140E250E0A3
:1017300062E072E0CE010E942E1F892B59F080E2F8
:10174000FE01A2E0B2E001900D928A95E1F7CE0190
:101750000E94BA15DF91CF91089508950E94AD0BB4
:10176000089590919B0292FF11C098E0899F90018B
:101770001124622B609322020E94E50680912202CE
:101780008595859585950E94AE0B08950E94E50686
:1017900008951092220280E00E94AE0B089590916D
:1017A00022028095892380932202282F277091F4AA
:1017B000282F082E000C330B9217130659F0909126
:1017C0009B0292FF07C08595859585950E94070726
:1017D0000E94C90B089590919B0292FB222720F949
:1017E000281769F080FB92F990939B0280919A02EE
:1017F00090919B020E943C0C82E00E94CF0B0895C6
:1018000080919B0282FB882780F991E089270E94C2
:10181000EB0B089581E00E94EB0B089580E00E949D
:10182000EB0B08956FEF7FEF90E080E00E94671F61
:10183000089590E080E00E94431F21E0883E9E4F83
:1018400009F020E0822F089582E090E00E943B1F83
:10185000089583E090E00E943B1F0895CF9384E0B9
:1018600090E00E943B1FC82F82E290E00E943B1F45
:10187000982F8C2FCF910895CF93C92F682F84E094
:1018800090E00E94491F6C2F82E290E00E94491F65
:10189000CF910895AB01BC018FE090E00E945B1FE7
:1018A0000895AB01BC0183E190E00E945B1F0895A5
:1018B00060E070E0CB010E94510C089560E070E0A0
:1018C000CB010E944A0C0E94580C089568EE7EEFEE
:1018D00090E080E00E94671F60E082E090E00E945C
:1018E000491F60E083E090E00E94491F1092C6010A
:1018F0001092C7011092C8011092C90160E084E003
:1019000090E00E94491F64E082E290E00E94491F3B
:1019100060E085E090E00E94491F60E086E090E092
:101920000E94491F6FEF87E090E00E94491F40E04E
:1019300050E0BA0188E090E00E945B1F60E08DE01B
:1019400090E00E94491F40E050E0BA0188E190E039
:101950000E945B1F60E087E190E00E94491F40E029
:1019600050E0BA018CE190E00E945B1F70E060E003
:1019700080E290E00E94671F40E050E0BA0188E1F9
:1019800090E00E945B1F0E945E0C08950E94660C0E
:101990000895682F8EE090E00E94491F08950E94EC
:1019A0008B17609354027093550280935602909364
:1019B00057026093500270935102809352029093A9
:1019C00053020895089508950E94E30C0895089520
:1019D0000E94E70C089582E79FE00E94A3150E94F1
:1019E000E20C0E94E40C089581E008950E94F40C3A
:1019F0000895089508950E94F90C0E94FA0C089524
:101A00000E94910F0E94BB0208950E9476170E94C7
:101A10005F100E94000D0E94E80C0895AAE0B0E05B
:101A2000E4E1FDE00C94EA1E0E947510C82E8111BD
:101A30000E94CF0C86E4A82E82E0B82E10E000E0D1
:101A4000902E802F0E94BE0FE82EF501F1905F01CD
:101A5000F816B9F18091580281FD0E94C40F8F2DB4
:101A60008E25D12CFF24F394982F9F2129F10E94D9
:101A7000F60C882399F0DE829F82EF2081E009F442
:101A800080E088870E947F178160782F9A878987F6
:101A90004E815F8168858A850E94D902F801EA5BE0
:101AA000FD4F8081F826F08281E0C11001C080E006
:101AB0002A96EBE00C94061FD394FF0CF8E0DF129B
:101AC000D3CF0F5F1F4F0A30110509F0B9CF8FEF49
:101AD00089838A831B820E947F178160782F9D8370
:101AE0008C8349815A816B818D810E94D902DCCF20
:101AF0000E940E0D0E948A120E94CE020895CF937A
:101B0000DF930E94980EEC01811521E5920708F001
:101B100042C0811530E5930708F09DC0883E9105CD
:101B200030F5803E910508F092C0883A910588F41E
:101B3000853A910508F084C08130910509F487C089
:101B4000009709F484C0049708F081C0D0E0C0E099
:101B50007EC08F3B9105D0F7C85AD0E0CC0FDD1F77
:101B6000C85BDE4F0990D881C02DD46470C0811548
:101B7000904250F4C11581E0D80708F068C0CD3E0E
:101B8000D10520F3D06563C0C11590E4D907F0F208
:101B9000DF70D06A5CC0811525E5920700F58115DC
:101BA00034E5930708F08BC0811543E5940708F0EE
:101BB00073C0C11582E5D80708F469C0CE018370EF
:101BC000992721E030E002C0220F331F8A95E2F707
:101BD000C695C69580E2C89FE001112454C0C11586
:101BE00099E5D907A8F4C11528E5D20708F06CC01B
:101BF000C11536E5D30708F0A9CF8C2F0E942F0F0F
:101C0000C82FD0E0DC2FCC27CC27DF71D0621FC0DB
:101C1000C1154AE5D40708F45CC0CE019056811581
:101C2000904208F093CF8D2F8F710E942F0F90E07C
:101C3000982F882788279F719C012C2BE901E6CFDC
:101C4000C55AD0E0CA58DE4FC881D0E0D064CE017A
:101C5000DF91CF910895E4E096958795EA95E1F7B5
:101C600083702C2F26952695237040E2249F9001A7
:101C70001124382B8C2F8370C1E0D0E002C0CC0F30
:101C8000DD1F8A95E2F7C22BD32BDC68E0CFDC2F77
:101C9000CC27C16FD06ADBCF8370992721E030E079
:101CA00002C0220F331F8A95E2F7C695C69590E2CF
:101CB000C99FE0011124C22BD32BDA68C8CFD82FDB
:101CC000CC27C46FD06AC3CFDC2FCC27C06FD06ABB
:101CD000BECF8C2F8F700E942F0F34E0D695C79502
:101CE0003A95E1F7CF709C2FEC01D069B0CF7A30F4
:101CF000B8F46830A8F4E72FF0E09AE0899FE00D8F
:101D0000F11D112483E0EE0FFF1F8A95E1F7E60F26
:101D1000F11DEE0FFF1FE455FF4F8591949108953B
:101D200080E090E008950E94770E0E947F0D089554
:101D300082389105B1F1B0F48133910509F475C091
:101D400048F48932910509F469C08A32910509F491
:101D500073C008958533910509F459C089339105FD
:101D600001F10895833E9105A9F138F4803E910573
:101D7000F9F0823E910549F10895863E9105A9F159
:101D8000873E9105C9F1843E910519F520919B028A
:101D900021FF1FC080919A0284FD14C087EE90E05D
:101DA000089520919A022370A1F080EE90E00895AA
:101DB00020919A0220FD47C030919B0230FF09C05C
:101DC00024FF44C090E080E004C020919A0222FDEC
:101DD000F7CF089520919A0222FD3BC030919B02DB
:101DE00030FDE3CF24FFF5CFEDCF20919A0223FF02
:101DF000F0CF24FDE7CFD2CF20919A0223FD2CC053
:101E000030919B0231FFEECF84EE90E00895209157
:101E10009A0225FFDECF89E290E0089520919A0290
:101E200025FFD7CF85E390E0089520919A0226FF01
:101E3000D0CF8AE290E0089520919A0226FFC9CF80
:101E400081E390E0089589E390E0089583EE90E0C7
:101E5000089582EE90E0089586EE90E008959091C6
:101E60009A0292FF06C0282F28712830F9F4877F44
:101E7000846093FF06C0282F28712831F1F4877EF3
:101E8000846120919B0220FF06C0382F38713830C2
:101E9000D9F4877F816021FF06C0282F287128315F
:101EA000D1F4877E816194FD877E0895282F247167
:101EB0002430F9F68B7F8860DCCF282F2471243101
:101EC00001F78B7E8861DDCF382F3171313019F702
:101ED0008E7F8860E0CF282F2171213121F78E7EFF
:101EE0008861E1CF80E008950E94120C08950E945D
:101EF00075102FEF86E791E0215080409040E1F788
:101F000000C000000E94751080E00E94BE0F80FF9C
:101F100004C00E94740F0E94CA1708950E94770F90
:101F200008950E94190C811102C00E94C60C0E94E3
:101F3000240C809358020E942E0C90939B02809355
:101F40009A020E948E0F0E94290C682F70E090E088
:101F500080E00E947A066091C2017091C301809175
:101F6000C4019091C5010E94B906089508950E9488
:101F7000B60F089508950E94BA0F0895E82FF0E073
:101F8000EA55FD4F80810895089580EA8A95F1F71A
:101F9000089500C008950E94C50F0895F894E82F91
:101FA000E295EF70F0E031A1282F2F7081E090E0F2
:101FB00001C0880F2A95EAF7982F9095932391A353
:101FC00092A1892B82A378940895CF93DF93C1E8DF
:101FD000D1E089918F3F11F00E94CE0F81E0CB3884
:101FE000D807B9F7C9E7D1E089918F3F11F00E9476
:101FF000CE0F81E0C138D807B9F7DF91CF910895AE
:10200000B0E0A0E0E6E0F0E10C94ED1EEC01D62E8D
:10201000062F10E0C8018F579E4F7C01FC01808184
:102020008F3F09F445C0F894E82FE295EF70F0E097
:1020300091A18F7021E030E001C0220F8A95EAF76C
:10204000892F822B81A382A12095282322A3789413
:102050000E94C90FE9E7F1E041E851E031E0C12C0D
:1020600021912F3F51F1A22FA295AF70B0E0909631
:102070008C9190E02F7002C0959587952A95E2F794
:1020800080FD1BC0832FC82A330F4E175F0741F70F
:10209000F70180818F3F11F00E94CE0F61E0C110E7
:1020A00001C060E08D2D0E94CB0FC00FD11FC882F0
:1020B000CDB7DEB7E8E00C94091F80E0E4CF0E94C2
:1020C000E50F8AE0E6EAF2E0DF01982F1D929A958B
:1020D000E9F7ECE9F2E0DF011D928A95E9F78AE081
:1020E0000E94B1100E9435020895AAE0B0E0EBE72B
:1020F000F0E10C94F01E8E010F5F1F4F8AE0F80193
:1021000011928A95E9F7F12C6F2DC8010E940010F9
:10211000F394FAE0FF12F8CF4AE050E0B8018CE9FE
:1021200092E00E942E1FFF24F394009709F4F12CF3
:10213000892B41F08AE0F801ACE9B2E001900D9200
:102140008A95E1F72F2D4AE066EA72E08CE992E089
:102150000E94B2100E9438028F2D2A96E5E00C945E
:102160000C1F0895FF920F931F93CF93DF93F82EC8
:10217000092F162FD72FC42F222349F081E08093F7
:102180005B020E947F1790935A02809359028091BC
:102190005B028823A1F08091590290915A020E941B
:1021A0009717059760F0EF2DF02FA12FBD2FCE0FC1
:1021B000DF2FD11DEC17FD0739F410925B02CDB76C
:1021C000DEB7E5E00C940C1F81918D93F3CF0E9454
:1021D000A4190E94050D0E94B11908950E94B61914
:1021E0000E94780D0E94D01908950E9418170E942D
:1021F0008A190E94EB0C0E94E7100E94EE100E94C8
:10220000FB0CFBCF8091620280FF0DC06091070143
:1022100070E0660F771F6038710570F56115710504
:1022200069F1862F089581FF07C06091070184E05E
:10223000689FB0011124EFCF6091070182FD0AC0B1
:10224000809161028823A9F0209106016091070125
:10225000821710F088E0ECCF869FC001112433E094
:10226000880F991F3A95E1F7622F70E00E94C91E0E
:10227000D2CF68E070E0D5CF8FE7089581E0089570
:102280008091620280FF0CC06091030170E075953F
:102290006795759567956115710549F1862F0895C4
:1022A00081FF06C06091030170E075956795F3CFDB
:1022B0006091030182FD0BC0909160029923A1F00F
:1022C0006091020180910301961738F0682F70E049
:1022D0006038710500F38FE70895899FC0011124CC
:1022E00070E00E94C91EF4CF61E070E0D7CF81E0BA
:1022F00008958D3E31F40E9402118195809366020B
:1023000008958E3E19F40E940211F8CF8F3E31F4E9
:102310000E9402118195809365020895803F19F40F
:102320000E940211F8CF893F29F40E944011809346
:10233000670208958A3F21F40E9440118195F7CFEA
:102340008B3F31F40E94401181958093680208957B
:102350008C3F19F40E944011F8CF9FE0980F9830FD
:1023600070F4815F990B21E030E001C0220F8A9563
:10237000EAF780916402822B8093640208958D3F76
:1023800031F48091620281608093620208958E3FF1
:1023900021F4809162028260F7CF8F3FB9F780917C
:1023A00062028460F1CF409165028D3E59F48091C4
:1023B000660287FF0DC01092660241110BC0109299
:1023C000610208C08E3E81F48091660218169CF36B
:1023D000442381F08091670290916802892B09F073
:1023E0005AC01092600208958F3E49F447FFF0CF23
:1023F00010926502809166028111ECCFE0CF803FA0
:1024000019F41416ACF3E4CF90916702893F29F4D4
:102410001916F4F610926702DBCF8A3F19F497FF82
:10242000D7CFF8CF909168028B3F29F497FFD0CF98
:1024300010926802CDCF8C3F19F41916CCF3C8CF97
:102440009FE0980F983090F4815F990B21E030E085
:10245000B90102C0660F771F8A95E2F7CB0180951C
:1024600090916402892380936402B2CF8D3F31F44E
:10247000809162028E7F80936202AACF8E3F21F408
:10248000809162028D7FF7CF8F3F09F0A1CF8091BD
:1024900062028B7FF0CF08950E947F179C0190917C
:1024A000650280916602982B21F030935F022093A1
:1024B0005E029091670280916802982B21F0309320
:1024C0005D0220935C0283E692E00E94D415089599
:1024D00086E0E3E6F2E0DF011D928A95E9F71092CB
:1024E000610210926002109262020895FC018281E2
:1024F00081110EC0838181110BC08481811108C0BC
:1025000091E08581811101C090E0892F817008954B
:1025100081E0FCCFA6E0B0E0E0E9F2E10C94F21E2D
:1025200086E0E3E6F2E0DE01119601900D928A95D5
:10253000E1F7109265021092660210926702109203
:1025400068028B819C81892B89F080915E02909139
:102550005F020E949717AC01909161029923C9F123
:10256000809108018417150608F440C08D819E8172
:10257000892B91F080915C0290915D020E949717E7
:10258000AC0190916002992309F471C0809104011B
:102590008417150608F479C0BE016F5F7F4F83E68C
:1025A00092E00E94D016811105C083E692E00E945D
:1025B000761281110E944C1286E0FE013196A3E64C
:1025C000B2E001900D928A95E1F72696E3E00C9433
:1025D0000E1F209109018AE0289F900111242417E1
:1025E000350720F69F5F9093610202C09F3FD1F7AD
:1025F0001B81112359F00E9402119FEF11160CF458
:1026000091E0899F802D1124809365021C81112304
:1026100059F00E9402119FEF11160CF491E0899F6E
:10262000802D11248093660230916502332309F4D2
:102630009DCF20916602222309F498CF45EB340305
:10264000C0011124992359F09093650245EB2403AE
:1026500090011124332339F03093660287CF81E053
:1026600080936502F3CF81E0809366027FCF209153
:1026700005018AE0289F900111242417350708F0EE
:102680008BCF9F5F9093600202C09F3FD1F71D8167
:10269000112359F00E9440119FEF11160CF491E0A4
:1026A000899F802D1124809367021E81112359F088
:1026B0000E9440119FEF11160CF491E0899F802D2C
:1026C00011248093680230916702332309F464CFA8
:1026D00020916802222309F45FCF45EB3403C00147
:1026E0001124992359F09093670245EB240390013C
:1026F0001124332339F0309368024ECF81E0809368
:102700006702F3CF81E08093680246CFCF93DF93D7
:10271000EC01FB018281882309F433C1C430FDE55B
:10272000DF07C0F5CB3F9CE5D90730F49E0122506E
:102730003C4524313105B0F50E942E0C90939B024C
:1027400080939A02C1318CE5D80709F4EEC008F0F5
:1027500069C0C930ECE5DE0709F4D5C0C8F5C5305D
:102760008CE5D80709F4C7C000F5C330ECE5DE07F7
:1027700009F4B9C008F0BBC0C230DC4509F4ADC0F3
:1027800080919A0290919B020E943C0C0E942C0620
:1027900080E008C0C236EDE5DE0771F2C63AFDE51D
:1027A000DF0751F2DF91CF91089580919A02806204
:1027B000C7309CE5D90709F493C080919A028061E3
:1027C000C830DC4508F48CC080919A02806488C0CF
:1027D00080919A028B7FCD30FCE5DF0709F480C041
:1027E00098F480919A028E7FCB309CE5D90709F44A
:1027F00077C080919A028C60CC30DC4508F470C0C0
:1028000080919A028D7F6CC080919A028F7ECF302A
:10281000FCE5DF0709F464C008F47BC080919A02EC
:102820008F7D5EC0CE3F9CE5D90709F47AC050F594
:10283000C531FCE5DF0709F486C098F480919A025F
:10284000837FC3319CE5D90709F44AC008F471C0FD
:102850000E942C0690919A02892F97FB87F9805845
:102860003FC0CC3FFCE5DF0709F449C008F055C084
:1028700080919B028160CB3FDC4509F081CF809342
:102880009B027ECFC230EDE5DE0709F468C0A8F4F4
:10289000C1158DE5D80709F452C080919B02836071
:1028A000C130DD4560F380919B02982F9095917027
:1028B0008E7F892B90FB81F9E2CFC236EDE5DE07F2
:1028C00009F451C0C63AFDE5DF0709F453C0C3302F
:1028D000DD4509F055CF80E043C080919A028160C8
:1028E00080939A024DCF80919A028260F9CF8091B5
:1028F0009A028460F5CF80919A028860F1CF80912E
:102900009B028260BCCF0E942C0680919A02806854
:10291000E7CF80919A02877FE3CF80919B028E7FE1
:10292000AECF80919B028D7FAACF80919A028F7B40
:10293000D7CF0E942C0680919A028F77D1CF8091B9
:102940009B028C7F9CCF80919A0282FB992790F901
:1029500021E0922790FB82F990FB83F9C1CF81E0BF
:102960000E94C90C0DCF90919A02892F8F7E94FFFF
:102970008061B6CF90919A02892F8E7F90FF8160FF
:10298000AFCF81E00FCFCF93DF93EB0186319C4532
:1029900011F50E942B0B9A81992399F08A7A91E084
:1029A00009F490E090936902811109C089E20E94C4
:1029B000030B0E946C0B80E0DF91CF91089585E3BB
:1029C000F6CF80916902811104C089E20E940B0B4D
:1029D000F0CF85E3FBCF81E0EFCF0F931F93CF9331
:1029E000DF93C42FD22FFC0182818823C9F040934A
:1029F0006C020E947F1790936B0280936A0280E2C0
:102A00008C0F883040F4C77081E001C0880FCA95F0
:102A1000EAF70E94B303DF91CF911F910F910895C0
:102A200010916C02141332C080916A0290916B0273
:102A30000E949717883C910548F5C0E2CD0F1D17FD
:102A4000B9F080E2810F883040F4177081E001C056
:102A5000880F1A95EAF70E94BA03C83048F481E05B
:102A60009D2F977001C0880F9A95EAF70E94B303D3
:102A7000802F0E94AA03C83070F6D77081E001C091
:102A8000880FDA95EAF70E94BA03C5CF80E28C0F6F
:102A9000883008F6C77081E001C0880FCA95EAF750
:102AA000F2CF0F939C01CB01243F4CE5340759F141
:102AB000A8F4293DFCE53F0701F12A3D4CE5340728
:102AC000D1F1283D3C4591F406E221EE41EE68ED5E
:102AD0007CE50E94ED1480E00F910895263FFCE50F
:102AE0003F07E9F0B0F0273F3C45F9F0FC01828157
:102AF000882339F110926C02EFCF07E225EE45EE04
:102B000069ED7CE5E6CF06E221EE40EE64EF7CE580
:102B1000E0CF07E225EE44EE65EF7CE5DACF06E292
:102B200021EE42EE66EF7CE5D4CF07E225EE46EEDD
:102B300067EF7CE5CECF08E221E045EE6AED7CE56B
:102B4000C8CF81E0C9CF90938D0180938C01089507
:102B500090937202809371020895E0917102F09156
:102B60007202309729F00190F081E02D09950895C7
:102B700080E00895E0917102F0917202309799F02F
:102B800020911601222359F020919A0227FF07C0B5
:102B9000DC012C9111962C93119726E02C93028046
:102BA000F381E02D09950895E0917102F091720290
:102BB000309739F022E0DC012C930480F581E02D80
:102BC0000995089520916F023091700228173907F6
:102BD00071F09093700280936F02E0917102F09116
:102BE0007202309721F00680F781E02D0995089553
:102BF00020916D0230916E022817390771F0909381
:102C00006E0280936D02E0917102F0917202309732
:102C100021F00084F185E02D09950895FC0132969C
:102C200080911601882321F080919A029EE187FF0E
:102C300096E080E0915008F4089521912223D1F389
:102C40008F5FF8CF662301F1209116012223F1F066
:102C500020919A0227FF1AC0462F46954695469521
:102C60004E3190F4677021E030E002C0220F331F34
:102C70006A95E2F7840F911DFC01828190E0282380
:102C8000392381E0232B69F480E00895FC0132961A
:102C900008962191261721F0E817F907D1F7F4CF0C
:102CA00081E008959C01FC0132969FEF80E0419104
:102CB000461751F09F3F19F4411101C0982F8F5FC3
:102CC0008630A9F79F3F09F40895290F311D97FD1C
:102CD0003A95F90162830895FC0132960896219194
:102CE000261303C0DF0111971C92E817F907B9F703
:102CF0000895E62FE695E695E695EE3168F4E80F3F
:102D0000F92FF11D677021E030E001C0220F6A95B4
:102D1000EAF78281822B82830895E62FE695E69575
:102D2000E695EE3170F4E80FF92FF11D677021E0A0
:102D300030E001C0220F6A95EAF7209582812823AE
:102D40002283089520911601222339F020919A02BE
:102D500027FF03C00E94791608950E945216089515
:102D600020911601222339F020919A0227FF03C0F7
:102D70000E948D1608950E946C160895FC013296EB
:102D800080911601882351F080919A0287FF06C036
:102D90008EE1DF011D928A95E9F7089586E0F9CF6B
:102DA00046E050E00E942E1F21E0892B09F420E02C
:102DB000822F089508950E94DA160895811106C0A1
:102DC00081E0809373020E94DB16089582E0F9CFC0
:102DD00083E0809373020E94DB1608950E94DE1642
:102DE000089581E0809373020E94DB1608950E948B
:102DF000F1160895089508950E94FB160895089508
:102E000008950E94FA160895CF930E94FF160E941B
:102E100075100E940017C0E08C2F0E94BE0F811118
:102E200005C0CF5FCA30C1F7CF91089581E0FCCFD4
:102E300085B7806885BF85B7806885BF08951F9274
:102E40001FB61F9211248F939F93AF93BF938091CE
:102E50007402811113C08091B0029091B102A091CF
:102E6000B202B091B3024196A11DB11D8093B00290
:102E70009093B102A093B202B093B302BF91AF910D
:102E80009F918F911F901FBE1F9018958091B8023F
:102E9000843031F10E94A8021092740288E190E01F
:102EA00020E40FB6F894A895809360000FBE20939D
:102EB000600083B7817F846083BF83B7816083BFF5
:102EC0007894889583B78E7F83BF0FB6F894A895C2
:102ED00080916000886180936000109260000FBE56
:102EE00008950E942C060E94AD02089582E084BDE0
:102EF00093E095BD9AEF97BD80936E0008952FB72C
:102F0000F8948091B0029091B102A091B202B09178
:102F1000B3022FBF08952FB7F8946091B00270915B
:102F2000B1028091B2029091B3022FBF08959C012B
:102F30004FB7F8948091B0029091B102A091B20283
:102F4000B091B3024FBF821B930B089578941F92E8
:102F50001FB61F9211248F939F93AF93BF938091BD
:102F6000B0029091B102A091B202B091B302019669
:102F7000A11DB11D8093B0029093B102A093B20243
:102F8000B093B302BF91AF919F918F911F901FBEDD
:102F90001F90189581E08093E00080E28093D80034
:102FA0001092C9008FE19EE40197F1F700C0000084
:102FB00087E090EBDC018093C1029093C202A09362
:102FC000C302B093C40288E19CE00FB6F894A895C0
:102FD000809360000FBE90936000FFCF88E19CE07B
:102FE0000FB6F894A895809360000FBE9093600090
:102FF000FFCF80919802089508959C0182E080930C
:10300000E9009FEF8091E800915085FD06C085EDB5
:103010008A95F1F700009111F5CF8091E80085FFC6
:103020000CC050E040E066E070E0C9010E94421A26
:103030008091E8008E778093E8000895CF93DF9326
:10304000EC01809116018823B1F180919A0287FFEB
:1030500032C060E282E08093E9008FEF9091E80057
:10306000815095FD06C095ED9A95F1F7000081110C
:10307000F5CF8091E80085FF1BC08091160170E0BC
:1030800050E040E0811104C050E040E068E070E0B2
:10309000CE010E94421A8091E8008E778093E8006A
:1030A00080E2FE01A8E7B2E001900D928A95E1F777
:1030B000DF91CF91089568E081E0CDCF80937502D4
:1030C00070937702609376028091B802843001F5A4
:1030D00082E08093E9008FEF9091E800815095FDA8
:1030E00006C095ED9A95F1F700008111F5CF80911A
:1030F000E80085FF0DC050E040E063E070E085E748
:1031000092E00E94421A8091E8008E778093E80056
:103110000895BC0184E00E945E180895BC0183E01C
:103120000E945E1808958091B702811109C00E9423
:10313000D21B0E942F1C8091E20084608093E200E9
:1031400008951092B70208950E94F11608956091B3
:10315000B40281E0611101C080E00E94E816089588
:103160009091B80281E0943009F080E06091B4025F
:103170000E94EE16089542E061EC81E00E944E1B31
:1031800042E261EC82E00E944E1B9091B80281E025
:10319000943009F080E06091B4020E94DE16089538
:1031A0008091BA02833009F461C030F48130D1F1EA
:1031B000823009F49EC008958A3009F48AC08B30A9
:1031C00009F46FC0893009F050C08091B902813292
:1031D00009F04BC08091BD029091BE02029708F0A9
:1031E00044C08091E800877F8093E8008091E800E8
:1031F00082FF37C09091F3008091F200029731F482
:103200008091F100813011F0863021F48091F1003D
:10321000809398028091E8008B778093E8000E9469
:10322000821B23C08091B902813AF9F48091E800B1
:10323000877F8093E8008091BD029091BE02892B28
:1032400061F460E288E792E070E00E94911A809158
:10325000E8008B778093E800089560E090E080E0DC
:10326000F3CF8091B8028111C1CF08958091B90246
:10327000813AD9F78091BD029091BE02892BA9F7BE
:103280008091E800877F8093E8008091E80080FFCC
:10329000FCCF809116018093F1008091E8008E7739
:1032A000BCCF8091B902813201F78091BD0290912B
:1032B000BE02892BD1F68091E800877F8093E800D9
:1032C0000E94821B8091BB02809316010E942C06F3
:1032D00008958091B902813241F68091E800877F9C
:1032E0008093E8000E94821B8091BC028093990227
:1032F00008958091B902813A09F0B7CF8091E80032
:10330000877F8093E8008091E80080FFFCCF809168
:103310009902C1CF84B7877F84BF0FB6F894A89570
:1033200080916000886180936000109260000FBE01
:1033300080E890E00FB6F89480936100909361006C
:103340000FBE0E94F71608950E94D21B0E942F1CE8
:10335000E2EEF0E080818460808378940E94AE1E6B
:1033600008958AE091E00E94A81508958091B8021E
:10337000853031F48091B802853019F00E947117C0
:1033800008950E9446178091B602882399F30E94FF
:103390000417882379F30E942C1A0E942C06EACF86
:1033A00008950E94D4190895292F33272330310519
:1033B00019F168F42130310509F444C02230310597
:1033C00009F445C090E080E030E020E025C02132E3
:1033D000310549F122323105A9F780E490E027E177
:1033E00033E061157105C1F086EB90E021E632E033
:1033F0006130710589F0E6CF99278130910581F020
:10340000009729F00297F1F6ECEEF1E002C0E0E15E
:10341000F2E0849190E09F01FA01318320830895C6
:10342000E0E0F2E0F6CF89E090E026E232E06115DC
:10343000710591F389E090E02FE332E0613071058E
:1034400059F3C0CF82E190E02FE432E0E5CF8BE387
:1034500090E024E132E0E0CF80E189BD82E189BDE6
:1034600009B400FEFDCF8091D8008F7D8093D800F5
:103470008091E00082608093E0008091E00081FD17
:10348000FCCF0895AF92BF92CF92DF92FF920F933D
:103490001F93CF93DF936C01EB018A010E94A11B64
:1034A000F82E811123C00115110539F0F801808132
:1034B0009181C81BD90BC80ED91EB12CA12C209705
:1034C000A9F08091E80085FD22C08091E8008E7708
:1034D0008093E80001151105A1F0F8018081918128
:1034E000A80EB91EB182A08285E0F82E8F2DDF9143
:1034F000CF911F910F91FF90DF90CF90BF90AF9031
:1035000008950E94A11B8823D1F2F82EEFCFF60177
:1035100081916F018093F1002197FFEFAF1ABF0AED
:10352000CECFFC018091BF029091C0028617970711
:10353000A0F06115710529F49091E8009E779093B1
:10354000E80090E06115710551F4911108C0809177
:10355000E80082FF34C080E00895BC01F2CF809182
:10356000B8028823C1F18530C1F18091E80083FD64
:1035700030C08091E80082FDEACF8091E80080FFB2
:10358000E1CF8091F3002091F200382F6115710591
:1035900019F02830310558F091E02830310509F054
:1035A00090E02091E8002E772093E800CBCF819126
:1035B0008093F100615071092F5F3F4FE7CF8091F9
:1035C000B802882341F0853041F08091E80083FF04
:1035D000BECF81E0089582E0089583E00895FC0164
:1035E0008091BF029091C00286179707A0F06115E5
:1035F000710529F48091E8008E778093E80090E0CF
:103600006115710551F4911108C08091E80082FFA5
:1036100035C080E00895BC01F2CF8091B8028823C4
:10362000C9F18530C9F18091E80083FD31C08091F6
:10363000E80082FDEACF8091E80080FFE1CF809131
:10364000F3002091F200382F6115710519F0283030
:10365000310558F091E02830310509F090E0809173
:10366000E8008E778093E800CBCF84918093F100BF
:103670003196615071092F5F3F4FE6CF8091B802BC
:10368000882341F0853041F08091E80083FFBDCF71
:1036900081E0089582E0089583E00895982F97309F
:1036A00028F08F708093E90081E008959093E900FD
:1036B000242F762F50E0981731F07091EC00209174
:1036C000ED005091F00021FD02C09F5FE8CF3091E6
:1036D000EB003E7F3093EB003091ED003D7F309367
:1036E000ED003091EB0031603093EB007093EC0013
:1036F0002093ED005093F0002091EE0027FDE5CFE0
:1037000080E008958091B90287FF13C08091E8009E
:1037100082FF06C08091E8008B778093E80004C0A8
:103720008091B8028111F2CF08958091B802882368
:10373000D9F38091E80080FFF8CF8091E8008E7780
:10374000ECCF2091E4003091E50095E6A9012091AD
:10375000EC00822F817020FF06C08091E80080FF7E
:1037600006C080E008952091E80022FD1AC08091F3
:10377000B802882389F0853089F08091EB0085FDBF
:103780000FC02091E4003091E50042175307F9F291
:103790009150E1F684E0089582E0089583E0089571
:1037A00081E008950E94411C0E94491CE0EEF0E077
:1037B000808181608083E8EDF0E080818F77808375
:1037C00019BCA7EDB0E08C918E7F8C9380818F7EA9
:1037D00080831092B70208950F931F93CF93DF93C6
:1037E0000E94411C0E94491CC8EDD0E088818F775F
:1037F000888388818068888388818F7D888319BCCD
:103800001092B8021092B4021092B6021092B50251
:1038100000EE10E0F80180818B7F808388818160D9
:10382000888342E060E080E00E944E1BE1EEF0E021
:1038300080818E7F8083E2EEF0E0808181608083F2
:10384000808188608083F80180818E7F8083888179
:1038500080618883DF91CF911F910F910895E8EDEA
:10386000F0E080818F7E8083E7EDF0E080818160F1
:10387000808384E082BF81E08093B7020E94EC1BCA
:103880000895E8EDF0E080818E7F80831092E20061
:1038900008951092DA001092E10008951F920F929D
:1038A0000FB60F9211242F933F934F935F936F9313
:1038B0007F938F939F93AF93BF93EF93FF938091E9
:1038C000E10082FF0BC08091E20082FF07C080917F
:1038D000E1008B7F8093E1000E94AD1E8091DA00B1
:1038E00080FF19C08091D80080FF15C08091DA0058
:1038F0008E7F8093DA008091D90080FF96C080E1AE
:1039000089BD82E189BD09B400FEFDCF81E08093CD
:10391000B8020E9493188091E10080FF19C0809145
:10392000E20080FF15C08091E2008E7F8093E2006C
:103930008091E20080618093E2008091D8008062F3
:103940008093D80019BC85E08093B8020E94A71824
:103950008091E10084FF2BC08091E20084FF27C0AA
:1039600080E189BD82E189BD89B5982F917080FF82
:10397000FBCF8091D8008F7D8093D8008091E100AB
:103980008F7E8093E1008091E2008F7E8093E20041
:103990008091E20081608093E2008091B4028823EC
:1039A00009F449C084E08093B8020E94B018809165
:1039B000E10083FF29C08091E20083FF25C0809150
:1039C000E100877F8093E10082E08093B80210924B
:1039D000B4028091E1008E7F8093E1008091E2004B
:1039E0008E7F8093E2008091E20080618093E2000C
:1039F00042E060E080E00E944E1B8091F000886011
:103A00008093F0000E94A418FF91EF91BF91AF91B5
:103A10009F918F917F916F915F914F913F912F91E6
:103A20000F900FBE0F901F90189519BC1092B802FE
:103A30000E94A11870CF8091E30087FD93E09093DE
:103A4000B802B3CF1F920F920FB60F9211242F938B
:103A50003F934F935F936F937F938F939F93AF9316
:103A6000BF93CF93DF93EF93FF93D091E900DF7083
:103A70008091EC00C82FC17080FDC0E81092E90071
:103A80008091F000877F8093F00078940E94661DFB
:103A90001092E9008091F00088608093F000CD2BB7
:103AA000CF70C093E900FF91EF91DF91CF91BF916B
:103AB000AF919F918F917F916F915F914F913F91C6
:103AC0002F910F900FBE0F901F901895AAE2B0E0B3
:103AD000ECE6FDE10C94F21E89EB92E02091F100FE
:103AE000FC012193CF01F2E0813C9F07B9F70E94CE
:103AF000D0188091E80083FF1EC18091B902909197
:103B0000BA029A3008F017C1E92FF0E0E557F04EFD
:103B10000C94DD1E803899F0823809F00CC1809138
:103B2000BD028F70873008F006C18093E900809154
:103B3000EB0085FB882780F91092E90006C0809190
:103B4000B5029091B602911182609091E800977F42
:103B50009093E8008093F1001092F1008091E800CA
:103B60008E77E5C0882309F4D3C0823009F0E3C022
:103B70008091BB028111D6C08091BD028F702FEF62
:103B8000280F263008F0D7C08093E9002091EB0081
:103B900020FFC8C0933031F48091EB0080628093A5
:103BA000EB00C0C09091EB0090619093EB0021E09E
:103BB00030E001C0220F8A95EAF72093EA001092C4
:103BC000EA008091EB008860EACF8111B4C01091C7
:103BD000BB021F778091E3008078812B8093E30004
:103BE0008091E800877F8093E8000E94821B80918B
:103BF000E80080FFFCCF8091E30080688093E300C1
:103C000082E0111183E08093B80295C08058823021
:103C100008F091C08091BB029091BC028C3D23E0E2
:103C20009207A1F583E08A838AE289834FB7F894EB
:103C3000DE01139620E03EE051E2E32FF0E05093E6
:103C40005700E49120FF03C0E295EF703F5FEF70F3
:103C50008E2F90E0EA30C0F0C7968D939D932F5F32
:103C6000243159F74FBF8091E800877F8093E800A7
:103C70006AE270E0CE0101960E94911A8091E800FC
:103C80008B778093E80057C0C096E7CF6091BD0264
:103C90007091BE02AE014F5F5F4F0E94D119BC010F
:103CA000892B09F448C09091E800977F9093E80031
:103CB00089819A810E94EF1AE1CF8038E1F58091E5
:103CC000E800877F8093E8008091B4028093F10040
:103CD00045CF811130C09091BB02923060F5809148
:103CE000E800877F8093E8009093B4020E94821BD3
:103CF0008091B402882311F084E005C08091E30034
:103D000087FDFACF81E08093B8020E94BB1813C0F0
:103D10008091BB02813079F481E0933009F080E03A
:103D20008093B6021092E9008091E800877F80932B
:103D3000E8000E94821B8091E80083FF0AC0809106
:103D4000E800877F8093E8008091EB008062809399
:103D5000EB00AA96E3E00C940E1F0895CF93809198
:103D6000B8028823A1F0C091E900CF709091EC00D7
:103D7000892F817090FD80E8C82B1092E900809116
:103D8000E80083FD0E94661DCF70C093E900CF91CB
:103D9000089597FB072E16F4009407D077FD09D0FD
:103DA0000E941A1F07FC05D03EF4909581959F4F05
:103DB0000895709561957F4F0895EE0FFF1F059050
:103DC000F491E02D09942F923F924F925F926F925F
:103DD0007F928F929F92AF92BF92CF92DF92EF929B
:103DE000FF920F931F93CF93DF93CDB7DEB7CA1B1C
:103DF000DB0B0FB6F894DEBF0FBECDBF09942A8847
:103E0000398848885F846E847D848C849B84AA84EE
:103E1000B984C884DF80EE80FD800C811B81AA817B
:103E2000B981CE0FD11D0FB6F894DEBF0FBECDBF46
:103E3000ED010895AA1BBB1B51E107C0AA1FBB1FC0
:103E4000A617B70710F0A61BB70B881F991F5A9526
:103E5000A9F780959095BC01CD010895FB01DC0187
:103E600004C08D910190801921F441505040C8F751
:103E7000881B990B0895F999FECF92BD81BDF89AE0
:103E8000992780B50895A8E1B0E042E050E00C9495
:103E90006F1F262FF999FECF92BD81BDF89A019729
:103EA00000B4021639F01FBA20BD0FB6F894FA9A82
:103EB000F99A0FBE08950396272F0E944A1F0E9469
:103EC000491F252F0E944A1F242F0C944A1F019638
:103ED000272F0E944A1F0C94491FDC01CB01FC01D3
:103EE000F999FECF06C0F2BDE1BDF89A319600B453
:103EF0000D9241505040B8F70895F894FFCFFC035D
:103F0000FC032D042D04BA04D6045C045C04E10413
:103F10006D057C057C058A1DB21D9B1EB21D9B1E76
:0A3F2000E51D061E9B1E5D1E691EB6
:103F2A002402280850011E0A1401F9171E18FD1749
:103F3A008E188918FC1701E200E900EA00B500B6FC
:103F4A0000B700CD008301CC008A019201940121BF
:103F5A0002230224022502260227022A02B300B4FF
:103F6A00006F007000818283E200E900EA00B50078
:103F7A00B600B700CD008301CC008A0192019401FA
:103F8A002102230224022502260227022A02B30062
:103F9A00B4006F007000818283F436323331F7F651
:0C3FAA00F593929190946697C634350010
:00000001FF
